{
  "abi": [
    {
      "constant": true,
      "inputs": [],
      "name": "getValue",
      "outputs": [
        {
          "internalType": "uint256",
          "name": "",
          "type": "uint256"
        }
      ],
      "payable": false,
      "stateMutability": "view",
      "type": "function"
    },
    {
      "constant": false,
      "inputs": [
        {
          "internalType": "uint256",
          "name": "_value",
          "type": "uint256"
        }
      ],
      "name": "setValue",
      "outputs": [],
      "payable": false,
      "stateMutability": "nonpayable",
      "type": "function"
    }
  ],
  "bytecode": "608060405234801561001057600080fd5b5060ab8061001f6000396000f3fe6080604052348015600f57600080fd5b506004361060325760003560e01c8063209652551460375780635524107714604f575b600080fd5b603d606b565b60408051918252519081900360200190f35b606960048036036020811015606357600080fd5b50356071565b005b60005490565b60005556fea265627a7a72315820e60202ef86e5aef09d37f58db84d84d3c673a7a1967e8a6db9753e6524f6556464736f6c63430005110032",
  "bytecodeSha1": "d37cf2ba9d809233068f9ced0a7c50e8a10291e7",
  "compiler": {
    "evm_version": "istanbul",
    "optimizer": {
      "enabled": true,
      "runs": 200
    },
    "version": "0.5.17+commit.d19bba13"
  },
  "contractName": "SimpleContract",
  "language": "Solidity",
  "natspec": {
    "methods": {}
  },
  "opcodes": "PUSH1 0x80 PUSH1 0x40 MSTORE CALLVALUE DUP1 ISZERO PUSH1 0xF JUMPI PUSH1 0x0 DUP1 REVERT JUMPDEST POP PUSH1 0x4 CALLDATASIZE LT PUSH1 0x32 JUMPI PUSH1 0x0 CALLDATALOAD PUSH1 0xE0 SHR DUP1 PUSH4 0x20965255 EQ PUSH1 0x37 JUMPI DUP1 PUSH4 0x55241077 EQ PUSH1 0x4F JUMPI JUMPDEST PUSH1 0x0 DUP1 REVERT JUMPDEST PUSH1 0x3D PUSH1 0x6B JUMP JUMPDEST PUSH1 0x40 DUP1 MLOAD SWAP2 DUP3 MSTORE MLOAD SWAP1 DUP2 SWAP1 SUB PUSH1 0x20 ADD SWAP1 RETURN JUMPDEST PUSH1 0x69 PUSH1 0x4 DUP1 CALLDATASIZE SUB PUSH1 0x20 DUP2 LT ISZERO PUSH1 0x63 JUMPI PUSH1 0x0 DUP1 REVERT JUMPDEST POP CALLDATALOAD PUSH1 0x71 JUMP JUMPDEST STOP JUMPDEST PUSH1 0x0 SLOAD SWAP1 JUMP JUMPDEST PUSH1 0x0 SSTORE JUMP INVALID LOG2 PUSH6 0x627A7A723158 KECCAK256 0xE6 MUL MUL 0xEF DUP7 0xE5 0xAE CREATE SWAP14 CALLDATACOPY CREATE2 DUP14 0xB8 0x4D DUP5 0xD3 0xC6 PUSH20 0xA7A1967E8A6DB9753E6524F6556464736F6C6343 STOP SDIV GT STOP ORIGIN ",
  "sha1": "441a41d7356fc3be0bdfb67e06a570060d8331a1",
  "source": "pragma solidity ^0.5.11;\n\ncontract SimpleContract {\n     uint value;\n     function setValue(uint _value) external {value = _value;}\n     function getValue() external view returns(uint){return value;}       \n}\n",
  "sourcePath": "contracts/hello_world_contract.sol",
  "type": "contract"
}