{
    "abi": [
        {
            "inputs": [
                {
                    "internalType": "address",
                    "name": "_baseToken",
                    "type": "address"
                },
                {
                    "internalType": "string",
                    "name": "_baseTokenSymbol",
                    "type": "string"
                },
                {
                    "internalType": "uint16",
                    "name": "_pairID",
                    "type": "uint16"
                },
                {
                    "internalType": "uint8",
                    "name": "_priceMode",
                    "type": "uint8"
                },
                {
                    "internalType": "address",
                    "name": "_priceFeedOracle",
                    "type": "address"
                },
                {
                    "internalType": "address",
                    "name": "_twapVwapOracle",
                    "type": "address"
                }
            ],
            "stateMutability": "nonpayable",
            "type": "constructor"
        },
        {
            "anonymous": false,
            "inputs": [
                {
                    "indexed": true,
                    "internalType": "address",
                    "name": "previousOwner",
                    "type": "address"
                },
                {
                    "indexed": true,
                    "internalType": "address",
                    "name": "newOwner",
                    "type": "address"
                }
            ],
            "name": "OwnershipTransferred",
            "type": "event"
        },
        {
            "anonymous": false,
            "inputs": [],
            "name": "buyOrderDone",
            "type": "event"
        },
        {
            "anonymous": false,
            "inputs": [
                {
                    "indexed": true,
                    "internalType": "uint256",
                    "name": "swapID",
                    "type": "uint256"
                },
                {
                    "indexed": true,
                    "internalType": "uint256",
                    "name": "orderID",
                    "type": "uint256"
                },
                {
                    "indexed": false,
                    "internalType": "address",
                    "name": "baseToken",
                    "type": "address"
                },
                {
                    "indexed": false,
                    "internalType": "address",
                    "name": "quoteToken",
                    "type": "address"
                },
                {
                    "indexed": false,
                    "internalType": "uint256",
                    "name": "amount",
                    "type": "uint256"
                },
                {
                    "indexed": false,
                    "internalType": "uint256",
                    "name": "limitPrice",
                    "type": "uint256"
                },
                {
                    "indexed": false,
                    "internalType": "address",
                    "name": "depositAddress",
                    "type": "address"
                },
                {
                    "indexed": false,
                    "internalType": "address",
                    "name": "senderAddress",
                    "type": "address"
                },
                {
                    "indexed": false,
                    "internalType": "uint16",
                    "name": "pairID",
                    "type": "uint16"
                }
            ],
            "name": "newBuyOrder",
            "type": "event"
        },
        {
            "anonymous": false,
            "inputs": [
                {
                    "indexed": true,
                    "internalType": "uint256",
                    "name": "swapID",
                    "type": "uint256"
                },
                {
                    "indexed": true,
                    "internalType": "uint256",
                    "name": "orderID",
                    "type": "uint256"
                },
                {
                    "indexed": false,
                    "internalType": "address",
                    "name": "baseToken",
                    "type": "address"
                },
                {
                    "indexed": false,
                    "internalType": "address",
                    "name": "quoteToken",
                    "type": "address"
                },
                {
                    "indexed": false,
                    "internalType": "uint256",
                    "name": "amount",
                    "type": "uint256"
                },
                {
                    "indexed": false,
                    "internalType": "uint256",
                    "name": "limitPrice",
                    "type": "uint256"
                },
                {
                    "indexed": false,
                    "internalType": "address",
                    "name": "depositAddress",
                    "type": "address"
                },
                {
                    "indexed": false,
                    "internalType": "address",
                    "name": "senderAddress",
                    "type": "address"
                },
                {
                    "indexed": false,
                    "internalType": "uint16",
                    "name": "pairID",
                    "type": "uint16"
                }
            ],
            "name": "newSellOrder",
            "type": "event"
        },
        {
            "anonymous": false,
            "inputs": [],
            "name": "sellOrderDone",
            "type": "event"
        },
        {
            "inputs": [],
            "name": "baseTokenSymbol",
            "outputs": [
                {
                    "internalType": "string",
                    "name": "",
                    "type": "string"
                }
            ],
            "stateMutability": "view",
            "type": "function"
        },
        {
            "inputs": [
                {
                    "internalType": "address",
                    "name": "_baseToken",
                    "type": "address"
                },
                {
                    "internalType": "uint256",
                    "name": "_quantity",
                    "type": "uint256"
                },
                {
                    "internalType": "uint256",
                    "name": "_limitPrice",
                    "type": "uint256"
                },
                {
                    "internalType": "address",
                    "name": "_depositAddress",
                    "type": "address"
                }
            ],
            "name": "buyOrder",
            "outputs": [
                {
                    "internalType": "uint256",
                    "name": "",
                    "type": "uint256"
                }
            ],
            "stateMutability": "payable",
            "type": "function"
        },
        {
            "inputs": [],
            "name": "currentOrderID",
            "outputs": [
                {
                    "internalType": "uint256",
                    "name": "",
                    "type": "uint256"
                }
            ],
            "stateMutability": "view",
            "type": "function"
        },
        {
            "inputs": [],
            "name": "currentSwapID",
            "outputs": [
                {
                    "internalType": "uint256",
                    "name": "",
                    "type": "uint256"
                }
            ],
            "stateMutability": "view",
            "type": "function"
        },
        {
            "inputs": [],
            "name": "getPrice",
            "outputs": [
                {
                    "internalType": "uint256",
                    "name": "",
                    "type": "uint256"
                }
            ],
            "stateMutability": "nonpayable",
            "type": "function"
        },
        {
            "inputs": [],
            "name": "owner",
            "outputs": [
                {
                    "internalType": "address",
                    "name": "",
                    "type": "address"
                }
            ],
            "stateMutability": "view",
            "type": "function"
        },
        {
            "inputs": [],
            "name": "pairID",
            "outputs": [
                {
                    "internalType": "uint16",
                    "name": "",
                    "type": "uint16"
                }
            ],
            "stateMutability": "view",
            "type": "function"
        },
        {
            "inputs": [],
            "name": "priceFeedOracle",
            "outputs": [
                {
                    "internalType": "contract PriceFeedOracle",
                    "name": "",
                    "type": "address"
                }
            ],
            "stateMutability": "view",
            "type": "function"
        },
        {
            "inputs": [],
            "name": "priceMode",
            "outputs": [
                {
                    "internalType": "uint8",
                    "name": "",
                    "type": "uint8"
                }
            ],
            "stateMutability": "view",
            "type": "function"
        },
        {
            "inputs": [],
            "name": "renounceOwnership",
            "outputs": [],
            "stateMutability": "nonpayable",
            "type": "function"
        },
        {
            "inputs": [],
            "name": "runSwap",
            "outputs": [
                {
                    "internalType": "uint256",
                    "name": "",
                    "type": "uint256"
                }
            ],
            "stateMutability": "nonpayable",
            "type": "function"
        },
        {
            "inputs": [
                {
                    "internalType": "address",
                    "name": "_baseToken",
                    "type": "address"
                },
                {
                    "internalType": "uint256",
                    "name": "_quantity",
                    "type": "uint256"
                },
                {
                    "internalType": "uint256",
                    "name": "_limitPrice",
                    "type": "uint256"
                },
                {
                    "internalType": "address",
                    "name": "_depositAddress",
                    "type": "address"
                }
            ],
            "name": "sellOrder",
            "outputs": [
                {
                    "internalType": "uint256",
                    "name": "",
                    "type": "uint256"
                }
            ],
            "stateMutability": "payable",
            "type": "function"
        },
        {
            "inputs": [
                {
                    "internalType": "address",
                    "name": "newOwner",
                    "type": "address"
                }
            ],
            "name": "transferOwnership",
            "outputs": [],
            "stateMutability": "nonpayable",
            "type": "function"
        },
        {
            "inputs": [],
            "name": "twapVwapOracle",
            "outputs": [
                {
                    "internalType": "contract TwapVwapAdapter",
                    "name": "",
                    "type": "address"
                }
            ],
            "stateMutability": "view",
            "type": "function"
        }
    ],
    "bytecode": "60806040523480156200001157600080fd5b50604051620013c4380380620013c48339810160408190526200003491620001a9565b6200003f33620000f3565b60046200004d86826200036a565b506005805461ffff86166101000262ffffff1990911660ff86161717905560405182906200007b9062000143565b6001600160a01b039091168152602001604051809103906000f080158015620000a8573d6000803e3d6000fd5b50600280546001600160a01b03199081166001600160a01b03938416179091556003805482169383169390931790925560018054909216961695909517909455506200043692505050565b600080546001600160a01b038381166001600160a01b0319831681178455604051919092169283917f8be0079c531659141344cd1fd0a4f28419497f9722a3daafe3b4186f6b6457e09190a35050565b6101fb80620011c983390190565b80516001600160a01b03811681146200016957600080fd5b919050565b634e487b7160e01b600052604160045260246000fd5b805161ffff811681146200016957600080fd5b805160ff811681146200016957600080fd5b60008060008060008060c08789031215620001c357600080fd5b620001ce8762000151565b602088810151919750906001600160401b0380821115620001ee57600080fd5b818a0191508a601f8301126200020357600080fd5b8151818111156200021857620002186200016e565b604051601f8201601f19908116603f011681019083821181831017156200024357620002436200016e565b816040528281528d868487010111156200025c57600080fd5b600093505b8284101562000280578484018601518185018701529285019262000261565b6000868483010152809a505050505050506200029f6040880162000184565b9350620002af6060880162000197565b9250620002bf6080880162000151565b9150620002cf60a0880162000151565b90509295509295509295565b600181811c90821680620002f057607f821691505b6020821081036200031157634e487b7160e01b600052602260045260246000fd5b50919050565b601f8211156200036557600081815260208120601f850160051c81016020861015620003405750805b601f850160051c820191505b8181101562000361578281556001016200034c565b5050505b505050565b81516001600160401b038111156200038657620003866200016e565b6200039e81620003978454620002db565b8462000317565b602080601f831160018114620003d65760008415620003bd5750858301515b600019600386901b1c1916600185901b17855562000361565b600085815260208120601f198616915b828110156200040757888601518255948401946001909101908401620003e6565b5085821015620004265787850151600019600388901b60f8161c191681555b5050505050600190811b01905550565b610d8380620004466000396000f3fe6080604052600436106100dd5760003560e01c80639e9d301b1161007f578063dea80c7911610059578063dea80c7914610230578063e7d37e4714610245578063f2fde38b14610265578063f65633bd1461028557600080fd5b80639e9d301b146101d85780639fe5c1ac146101ee578063b9ab99271461021057600080fd5b80633e9bf32f116100bb5780633e9bf32f14610167578063715018a61461017a5780638da5cb5b1461019157806398d5fdca146101c357600080fd5b806307615815146100e25780631ce959b81461011357806336fdbce414610134575b600080fd5b3480156100ee57600080fd5b506005546100fc9060ff1681565b60405160ff90911681526020015b60405180910390f35b610126610121366004610a8e565b61029b565b60405190815260200161010a565b34801561014057600080fd5b5060055461015490610100900461ffff1681565b60405161ffff909116815260200161010a565b610126610175366004610a8e565b6104aa565b34801561018657600080fd5b5061018f6105b0565b005b34801561019d57600080fd5b506000546001600160a01b03165b6040516001600160a01b03909116815260200161010a565b3480156101cf57600080fd5b506101266105c4565b3480156101e457600080fd5b5061012660065481565b3480156101fa57600080fd5b506102036108a7565b60405161010a9190610ad4565b34801561021c57600080fd5b506002546101ab906001600160a01b031681565b34801561023c57600080fd5b50610126610935565b34801561025157600080fd5b506003546101ab906001600160a01b031681565b34801561027157600080fd5b5061018f610280366004610b22565b61094f565b34801561029157600080fd5b5061012660075481565b6001546000906001600160a01b038681169116146102b857600080fd5b600154604051636eb1769f60e11b81523360048201523060248201526000916001600160a01b03169063dd62ed3e90604401602060405180830381865afa158015610307573d6000803e3d6000fd5b505050506040513d601f19601f8201168201806040525081019061032b9190610b44565b9050848110156103825760405162461bcd60e51b815260206004820152601960248201527f436865636b2074686520746f6b656e20616c6c6f77616e63650000000000000060448201526064015b60405180910390fd5b6001546040516323b872dd60e01b8152336004820152306024820152604481018790526001600160a01b03909116906323b872dd906064016020604051808303816000875af11580156103d9573d6000803e3d6000fd5b505050506040513d601f19601f820116820180604052508101906103fd9190610b5d565b506007546006547fde3ef5cce083fde9fdf5f9dfc0520eab7d9b2da6636f54024dd9f397596186fd88600089898933600560019054906101000a900461ffff166040516104509796959493929190610b7f565b60405180910390a3600780546008805460018101825560009182527ff3f7a9fe364faab93b216da50a3214154f22a0a2b415b23a84c8169e8b636ee30182905590919061049c83610bda565b909155509695505050505050565b6001546000906001600160a01b038681169116146104c757600080fd5b6000670de0b6b3a76400006104dc8587610bf3565b6104e69190610c10565b90508034101561055e5760405162461bcd60e51b815260206004820152603f60248201527f56616c75652073686f756c6420636f766572207468652066756c6c207072696360448201527f65206f662072657175657374656420616d6f756e74206f6620746f6b656e73006064820152608401610379565b6007546006547f63633e980cf83cc2f0c855d9aee9cba28f3458e53c5b080f9187b4c2ff889eda88600089898933600560019054906101000a900461ffff166040516104509796959493929190610b7f565b6105b86109c8565b6105c26000610a22565b565b60008042816105d662093a8083610c32565b60055490915060ff1660010361065d5760025460408051638e15f47360e01b815290516000926001600160a01b031691638e15f4739160048083019260209291908290030181865afa158015610630573d6000803e3d6000fd5b505050506040513d601f19601f820116820180604052508101906106549190610b44565b935061084f9050565b60055460ff166002036107585760035460405163c57707b960e01b81526000916001600160a01b03169063c57707b99061069f90600490869088908301610c93565b6020604051808303816000875af11580156106be573d6000803e3d6000fd5b505050506040513d601f19601f820116820180604052508101906106e29190610b44565b600354604051632b7531e160e21b8152600481018390529192506001600160a01b03169063add4c78490602401602060405180830381865afa15801561072c573d6000803e3d6000fd5b505050506040513d601f19601f820116820180604052508101906107509190610b44565b93505061084f565b60055460ff1660030361084f57600354604051633206c38360e11b81526000916001600160a01b03169063640d87069061079a90600490869088908301610c93565b6020604051808303816000875af11580156107b9573d6000803e3d6000fd5b505050506040513d601f19601f820116820180604052508101906107dd9190610b44565b600354604051632b7531e160e21b8152600481018390529192506001600160a01b03169063add4c78490602401602060405180830381865afa158015610827573d6000803e3d6000fd5b505050506040513d601f19601f8201168201806040525081019061084b9190610b44565b9350505b6000831161089f5760405162461bcd60e51b815260206004820152601e60248201527f50726963652073686f756c64206265206d6f7265207468616e207a65726f00006044820152606401610379565b509092915050565b600480546108b490610c59565b80601f01602080910402602001604051908101604052809291908181526020018280546108e090610c59565b801561092d5780601f106109025761010080835404028352916020019161092d565b820191906000526020600020905b81548152906001019060200180831161091057829003601f168201915b505050505081565b600680546000918261094683610bda565b91905055905090565b6109576109c8565b6001600160a01b0381166109bc5760405162461bcd60e51b815260206004820152602660248201527f4f776e61626c653a206e6577206f776e657220697320746865207a65726f206160448201526564647265737360d01b6064820152608401610379565b6109c581610a22565b50565b6000546001600160a01b031633146105c25760405162461bcd60e51b815260206004820181905260248201527f4f776e61626c653a2063616c6c6572206973206e6f7420746865206f776e65726044820152606401610379565b600080546001600160a01b038381166001600160a01b0319831681178455604051919092169283917f8be0079c531659141344cd1fd0a4f28419497f9722a3daafe3b4186f6b6457e09190a35050565b80356001600160a01b0381168114610a8957600080fd5b919050565b60008060008060808587031215610aa457600080fd5b610aad85610a72565b93506020850135925060408501359150610ac960608601610a72565b905092959194509250565b600060208083528351808285015260005b81811015610b0157858101830151858201604001528201610ae5565b506000604082860101526040601f19601f8301168501019250505092915050565b600060208284031215610b3457600080fd5b610b3d82610a72565b9392505050565b600060208284031215610b5657600080fd5b5051919050565b600060208284031215610b6f57600080fd5b81518015158114610b3d57600080fd5b6001600160a01b0397881681529587166020870152604086019490945260608501929092528416608084015290921660a082015261ffff90911660c082015260e00190565b634e487b7160e01b600052601160045260246000fd5b600060018201610bec57610bec610bc4565b5060010190565b8082028115828204841417610c0a57610c0a610bc4565b92915050565b600082610c2d57634e487b7160e01b600052601260045260246000fd5b500490565b8181036000831280158383131683831282161715610c5257610c52610bc4565b5092915050565b600181811c90821680610c6d57607f821691505b602082108103610c8d57634e487b7160e01b600052602260045260246000fd5b50919050565b60608152600080855481600182811c915080831680610cb357607f831692505b60208084108203610cd257634e487b7160e01b86526022600452602486fd5b6060880184905260808801828015610cf15760018114610d0757610d32565b60ff198716825285151560051b82019750610d32565b60008d81526020902060005b87811015610d2c57815484820152908601908401610d13565b83019850505b5050870198909852505050604090920192909252939250505056fea264697066735822122003588120e34de5e65690a75523ab20a81c901e1805564cc734853ff166fc904464736f6c63430008130033608060405234801561001057600080fd5b506040516101fb3803806101fb83398101604081905261002f91610054565b600080546001600160a01b0319166001600160a01b0392909216919091179055610084565b60006020828403121561006657600080fd5b81516001600160a01b038116811461007d57600080fd5b9392505050565b610168806100936000396000f3fe608060405234801561001057600080fd5b506004361061002b5760003560e01c80638e15f47314610030575b600080fd5b61003861004a565b60405190815260200160405180910390f35b6000805460408051633fabe5a360e21b8152905183926001600160a01b03169163feaf968c9160048083019260a09291908290030181865afa158015610094573d6000803e3d6000fd5b505050506040513d601f19601f820116820180604052508101906100b891906100e2565b509195945050505050565b805169ffffffffffffffffffff811681146100dd57600080fd5b919050565b600080600080600060a086880312156100fa57600080fd5b610103866100c3565b9450602086015193506040860151925060608601519150610126608087016100c3565b9050929550929590935056fea2646970667358221220d7bbf6cd087ca738572da68fcf2dbde5ce6aaa9239fbfc09cbc528d49f12132164736f6c63430008130033",
    "bytecodeSha1": "ba6da0f2097c4ac218e721ab516cf118886443cb",
    "compiler": {
        "evm_version": "istanbul",
        "optimizer": {
            "enabled": true,
            "runs": 200
        },
        "version": "0.8.19+commit.7dd6d404"
    },
    "contractName": "Tulip",
    "language": "Solidity",
    "natspec": {
        "kind": "dev",
        "methods": {
            "buyOrder(address,uint256,uint256,address)": {
                "notice": "Create an order to buy the tokens for ETH",
                "params": {
                    "_baseToken": ": the base ERC20 token",
                    "_depositAddress": ": the address to send the tokens after the order is completed",
                    "_limitPrice": ": the max price for one token in WEI",
                    "_quantity": ": amount of token to buy with 18 decimals, e.g. 1 * 10**18 for 1 token"
                }
            },
            "constructor": {
                "params": {
                    "_baseToken": ": a token to swap (e.g., wBTC, ADA)",
                    "_baseTokenSymbol": ": base token symbol to use with twap/vwap API",
                    "_pairID": ": The numerical ID of unique swap pair, e.g. wBTC/ETH.",
                    "_priceFeedOracle": ": contract providing the price for the _baseToken from chainlink price feed",
                    "_priceMode": ": 1 for chainlink price feed, 2 for twap, 3 for vwap",
                    "_twapVwapOracle": ": contract providing the price for the _baseToken from our twap/vwap external adapter"
                }
            },
            "getPrice()": {
                "notice": "Get token price from the Chainlink price feed or TwapVwap adapter. "
            },
            "owner()": {
                "details": "Returns the address of the current owner."
            },
            "renounceOwnership()": {
                "details": "Leaves the contract without owner. It will not be possible to call `onlyOwner` functions anymore. Can only be called by the current owner. NOTE: Renouncing ownership will leave the contract without an owner, thereby removing any functionality that is only available to the owner."
            },
            "sellOrder(address,uint256,uint256,address)": {
                "notice": "Create an order to sell the tokens for ETH.",
                "params": {
                    "_baseToken": ": amount of token to sell",
                    "_depositAddress": ": the address to send the ETH after the order is completed",
                    "_limitPrice": ": the upper price for one token in WEI",
                    "_quantity": ": amount of token to sell with 18 decimals, e.g. 1 * 10**18 for 1 token"
                }
            },
            "transferOwnership(address)": {
                "details": "Transfers ownership of the contract to a new account (`newOwner`). Can only be called by the current owner."
            }
        },
        "version": 1
    },
    "opcodes": "PUSH1 0x80 PUSH1 0x40 MSTORE PUSH1 0x4 CALLDATASIZE LT PUSH2 0xDD JUMPI PUSH1 0x0 CALLDATALOAD PUSH1 0xE0 SHR DUP1 PUSH4 0x9E9D301B GT PUSH2 0x7F JUMPI DUP1 PUSH4 0xDEA80C79 GT PUSH2 0x59 JUMPI DUP1 PUSH4 0xDEA80C79 EQ PUSH2 0x230 JUMPI DUP1 PUSH4 0xE7D37E47 EQ PUSH2 0x245 JUMPI DUP1 PUSH4 0xF2FDE38B EQ PUSH2 0x265 JUMPI DUP1 PUSH4 0xF65633BD EQ PUSH2 0x285 JUMPI PUSH1 0x0 DUP1 REVERT JUMPDEST DUP1 PUSH4 0x9E9D301B EQ PUSH2 0x1D8 JUMPI DUP1 PUSH4 0x9FE5C1AC EQ PUSH2 0x1EE JUMPI DUP1 PUSH4 0xB9AB9927 EQ PUSH2 0x210 JUMPI PUSH1 0x0 DUP1 REVERT JUMPDEST DUP1 PUSH4 0x3E9BF32F GT PUSH2 0xBB JUMPI DUP1 PUSH4 0x3E9BF32F EQ PUSH2 0x167 JUMPI DUP1 PUSH4 0x715018A6 EQ PUSH2 0x17A JUMPI DUP1 PUSH4 0x8DA5CB5B EQ PUSH2 0x191 JUMPI DUP1 PUSH4 0x98D5FDCA EQ PUSH2 0x1C3 JUMPI PUSH1 0x0 DUP1 REVERT JUMPDEST DUP1 PUSH4 0x7615815 EQ PUSH2 0xE2 JUMPI DUP1 PUSH4 0x1CE959B8 EQ PUSH2 0x113 JUMPI DUP1 PUSH4 0x36FDBCE4 EQ PUSH2 0x134 JUMPI JUMPDEST PUSH1 0x0 DUP1 REVERT JUMPDEST CALLVALUE DUP1 ISZERO PUSH2 0xEE JUMPI PUSH1 0x0 DUP1 REVERT JUMPDEST POP PUSH1 0x5 SLOAD PUSH2 0xFC SWAP1 PUSH1 0xFF AND DUP2 JUMP JUMPDEST PUSH1 0x40 MLOAD PUSH1 0xFF SWAP1 SWAP2 AND DUP2 MSTORE PUSH1 0x20 ADD JUMPDEST PUSH1 0x40 MLOAD DUP1 SWAP2 SUB SWAP1 RETURN JUMPDEST PUSH2 0x126 PUSH2 0x121 CALLDATASIZE PUSH1 0x4 PUSH2 0xA8E JUMP JUMPDEST PUSH2 0x29B JUMP JUMPDEST PUSH1 0x40 MLOAD SWAP1 DUP2 MSTORE PUSH1 0x20 ADD PUSH2 0x10A JUMP JUMPDEST CALLVALUE DUP1 ISZERO PUSH2 0x140 JUMPI PUSH1 0x0 DUP1 REVERT JUMPDEST POP PUSH1 0x5 SLOAD PUSH2 0x154 SWAP1 PUSH2 0x100 SWAP1 DIV PUSH2 0xFFFF AND DUP2 JUMP JUMPDEST PUSH1 0x40 MLOAD PUSH2 0xFFFF SWAP1 SWAP2 AND DUP2 MSTORE PUSH1 0x20 ADD PUSH2 0x10A JUMP JUMPDEST PUSH2 0x126 PUSH2 0x175 CALLDATASIZE PUSH1 0x4 PUSH2 0xA8E JUMP JUMPDEST PUSH2 0x4AA JUMP JUMPDEST CALLVALUE DUP1 ISZERO PUSH2 0x186 JUMPI PUSH1 0x0 DUP1 REVERT JUMPDEST POP PUSH2 0x18F PUSH2 0x5B0 JUMP JUMPDEST STOP JUMPDEST CALLVALUE DUP1 ISZERO PUSH2 0x19D JUMPI PUSH1 0x0 DUP1 REVERT JUMPDEST POP PUSH1 0x0 SLOAD PUSH1 0x1 PUSH1 0x1 PUSH1 0xA0 SHL SUB AND JUMPDEST PUSH1 0x40 MLOAD PUSH1 0x1 PUSH1 0x1 PUSH1 0xA0 SHL SUB SWAP1 SWAP2 AND DUP2 MSTORE PUSH1 0x20 ADD PUSH2 0x10A JUMP JUMPDEST CALLVALUE DUP1 ISZERO PUSH2 0x1CF JUMPI PUSH1 0x0 DUP1 REVERT JUMPDEST POP PUSH2 0x126 PUSH2 0x5C4 JUMP JUMPDEST CALLVALUE DUP1 ISZERO PUSH2 0x1E4 JUMPI PUSH1 0x0 DUP1 REVERT JUMPDEST POP PUSH2 0x126 PUSH1 0x6 SLOAD DUP2 JUMP JUMPDEST CALLVALUE DUP1 ISZERO PUSH2 0x1FA JUMPI PUSH1 0x0 DUP1 REVERT JUMPDEST POP PUSH2 0x203 PUSH2 0x8A7 JUMP JUMPDEST PUSH1 0x40 MLOAD PUSH2 0x10A SWAP2 SWAP1 PUSH2 0xAD4 JUMP JUMPDEST CALLVALUE DUP1 ISZERO PUSH2 0x21C JUMPI PUSH1 0x0 DUP1 REVERT JUMPDEST POP PUSH1 0x2 SLOAD PUSH2 0x1AB SWAP1 PUSH1 0x1 PUSH1 0x1 PUSH1 0xA0 SHL SUB AND DUP2 JUMP JUMPDEST CALLVALUE DUP1 ISZERO PUSH2 0x23C JUMPI PUSH1 0x0 DUP1 REVERT JUMPDEST POP PUSH2 0x126 PUSH2 0x935 JUMP JUMPDEST CALLVALUE DUP1 ISZERO PUSH2 0x251 JUMPI PUSH1 0x0 DUP1 REVERT JUMPDEST POP PUSH1 0x3 SLOAD PUSH2 0x1AB SWAP1 PUSH1 0x1 PUSH1 0x1 PUSH1 0xA0 SHL SUB AND DUP2 JUMP JUMPDEST CALLVALUE DUP1 ISZERO PUSH2 0x271 JUMPI PUSH1 0x0 DUP1 REVERT JUMPDEST POP PUSH2 0x18F PUSH2 0x280 CALLDATASIZE PUSH1 0x4 PUSH2 0xB22 JUMP JUMPDEST PUSH2 0x94F JUMP JUMPDEST CALLVALUE DUP1 ISZERO PUSH2 0x291 JUMPI PUSH1 0x0 DUP1 REVERT JUMPDEST POP PUSH2 0x126 PUSH1 0x7 SLOAD DUP2 JUMP JUMPDEST PUSH1 0x1 SLOAD PUSH1 0x0 SWAP1 PUSH1 0x1 PUSH1 0x1 PUSH1 0xA0 SHL SUB DUP7 DUP2 AND SWAP2 AND EQ PUSH2 0x2B8 JUMPI PUSH1 0x0 DUP1 REVERT JUMPDEST PUSH1 0x1 SLOAD PUSH1 0x40 MLOAD PUSH4 0x6EB1769F PUSH1 0xE1 SHL DUP2 MSTORE CALLER PUSH1 0x4 DUP3 ADD MSTORE ADDRESS PUSH1 0x24 DUP3 ADD MSTORE PUSH1 0x0 SWAP2 PUSH1 0x1 PUSH1 0x1 PUSH1 0xA0 SHL SUB AND SWAP1 PUSH4 0xDD62ED3E SWAP1 PUSH1 0x44 ADD PUSH1 0x20 PUSH1 0x40 MLOAD DUP1 DUP4 SUB DUP2 DUP7 GAS STATICCALL ISZERO DUP1 ISZERO PUSH2 0x307 JUMPI RETURNDATASIZE PUSH1 0x0 DUP1 RETURNDATACOPY RETURNDATASIZE PUSH1 0x0 REVERT JUMPDEST POP POP POP POP PUSH1 0x40 MLOAD RETURNDATASIZE PUSH1 0x1F NOT PUSH1 0x1F DUP3 ADD AND DUP3 ADD DUP1 PUSH1 0x40 MSTORE POP DUP2 ADD SWAP1 PUSH2 0x32B SWAP2 SWAP1 PUSH2 0xB44 JUMP JUMPDEST SWAP1 POP DUP5 DUP2 LT ISZERO PUSH2 0x382 JUMPI PUSH1 0x40 MLOAD PUSH3 0x461BCD PUSH1 0xE5 SHL DUP2 MSTORE PUSH1 0x20 PUSH1 0x4 DUP3 ADD MSTORE PUSH1 0x19 PUSH1 0x24 DUP3 ADD MSTORE PUSH32 0x436865636B2074686520746F6B656E20616C6C6F77616E636500000000000000 PUSH1 0x44 DUP3 ADD MSTORE PUSH1 0x64 ADD JUMPDEST PUSH1 0x40 MLOAD DUP1 SWAP2 SUB SWAP1 REVERT JUMPDEST PUSH1 0x1 SLOAD PUSH1 0x40 MLOAD PUSH4 0x23B872DD PUSH1 0xE0 SHL DUP2 MSTORE CALLER PUSH1 0x4 DUP3 ADD MSTORE ADDRESS PUSH1 0x24 DUP3 ADD MSTORE PUSH1 0x44 DUP2 ADD DUP8 SWAP1 MSTORE PUSH1 0x1 PUSH1 0x1 PUSH1 0xA0 SHL SUB SWAP1 SWAP2 AND SWAP1 PUSH4 0x23B872DD SWAP1 PUSH1 0x64 ADD PUSH1 0x20 PUSH1 0x40 MLOAD DUP1 DUP4 SUB DUP2 PUSH1 0x0 DUP8 GAS CALL ISZERO DUP1 ISZERO PUSH2 0x3D9 JUMPI RETURNDATASIZE PUSH1 0x0 DUP1 RETURNDATACOPY RETURNDATASIZE PUSH1 0x0 REVERT JUMPDEST POP POP POP POP PUSH1 0x40 MLOAD RETURNDATASIZE PUSH1 0x1F NOT PUSH1 0x1F DUP3 ADD AND DUP3 ADD DUP1 PUSH1 0x40 MSTORE POP DUP2 ADD SWAP1 PUSH2 0x3FD SWAP2 SWAP1 PUSH2 0xB5D JUMP JUMPDEST POP PUSH1 0x7 SLOAD PUSH1 0x6 SLOAD PUSH32 0xDE3EF5CCE083FDE9FDF5F9DFC0520EAB7D9B2DA6636F54024DD9F397596186FD DUP9 PUSH1 0x0 DUP10 DUP10 DUP10 CALLER PUSH1 0x5 PUSH1 0x1 SWAP1 SLOAD SWAP1 PUSH2 0x100 EXP SWAP1 DIV PUSH2 0xFFFF AND PUSH1 0x40 MLOAD PUSH2 0x450 SWAP8 SWAP7 SWAP6 SWAP5 SWAP4 SWAP3 SWAP2 SWAP1 PUSH2 0xB7F JUMP JUMPDEST PUSH1 0x40 MLOAD DUP1 SWAP2 SUB SWAP1 LOG3 PUSH1 0x7 DUP1 SLOAD PUSH1 0x8 DUP1 SLOAD PUSH1 0x1 DUP2 ADD DUP3 SSTORE PUSH1 0x0 SWAP2 DUP3 MSTORE PUSH32 0xF3F7A9FE364FAAB93B216DA50A3214154F22A0A2B415B23A84C8169E8B636EE3 ADD DUP3 SWAP1 SSTORE SWAP1 SWAP2 SWAP1 PUSH2 0x49C DUP4 PUSH2 0xBDA JUMP JUMPDEST SWAP1 SWAP2 SSTORE POP SWAP7 SWAP6 POP POP POP POP POP POP JUMP JUMPDEST PUSH1 0x1 SLOAD PUSH1 0x0 SWAP1 PUSH1 0x1 PUSH1 0x1 PUSH1 0xA0 SHL SUB DUP7 DUP2 AND SWAP2 AND EQ PUSH2 0x4C7 JUMPI PUSH1 0x0 DUP1 REVERT JUMPDEST PUSH1 0x0 PUSH8 0xDE0B6B3A7640000 PUSH2 0x4DC DUP6 DUP8 PUSH2 0xBF3 JUMP JUMPDEST PUSH2 0x4E6 SWAP2 SWAP1 PUSH2 0xC10 JUMP JUMPDEST SWAP1 POP DUP1 CALLVALUE LT ISZERO PUSH2 0x55E JUMPI PUSH1 0x40 MLOAD PUSH3 0x461BCD PUSH1 0xE5 SHL DUP2 MSTORE PUSH1 0x20 PUSH1 0x4 DUP3 ADD MSTORE PUSH1 0x3F PUSH1 0x24 DUP3 ADD MSTORE PUSH32 0x56616C75652073686F756C6420636F766572207468652066756C6C2070726963 PUSH1 0x44 DUP3 ADD MSTORE PUSH32 0x65206F662072657175657374656420616D6F756E74206F6620746F6B656E7300 PUSH1 0x64 DUP3 ADD MSTORE PUSH1 0x84 ADD PUSH2 0x379 JUMP JUMPDEST PUSH1 0x7 SLOAD PUSH1 0x6 SLOAD PUSH32 0x63633E980CF83CC2F0C855D9AEE9CBA28F3458E53C5B080F9187B4C2FF889EDA DUP9 PUSH1 0x0 DUP10 DUP10 DUP10 CALLER PUSH1 0x5 PUSH1 0x1 SWAP1 SLOAD SWAP1 PUSH2 0x100 EXP SWAP1 DIV PUSH2 0xFFFF AND PUSH1 0x40 MLOAD PUSH2 0x450 SWAP8 SWAP7 SWAP6 SWAP5 SWAP4 SWAP3 SWAP2 SWAP1 PUSH2 0xB7F JUMP JUMPDEST PUSH2 0x5B8 PUSH2 0x9C8 JUMP JUMPDEST PUSH2 0x5C2 PUSH1 0x0 PUSH2 0xA22 JUMP JUMPDEST JUMP JUMPDEST PUSH1 0x0 DUP1 TIMESTAMP DUP2 PUSH2 0x5D6 PUSH3 0x93A80 DUP4 PUSH2 0xC32 JUMP JUMPDEST PUSH1 0x5 SLOAD SWAP1 SWAP2 POP PUSH1 0xFF AND PUSH1 0x1 SUB PUSH2 0x65D JUMPI PUSH1 0x2 SLOAD PUSH1 0x40 DUP1 MLOAD PUSH4 0x8E15F473 PUSH1 0xE0 SHL DUP2 MSTORE SWAP1 MLOAD PUSH1 0x0 SWAP3 PUSH1 0x1 PUSH1 0x1 PUSH1 0xA0 SHL SUB AND SWAP2 PUSH4 0x8E15F473 SWAP2 PUSH1 0x4 DUP1 DUP4 ADD SWAP3 PUSH1 0x20 SWAP3 SWAP2 SWAP1 DUP3 SWAP1 SUB ADD DUP2 DUP7 GAS STATICCALL ISZERO DUP1 ISZERO PUSH2 0x630 JUMPI RETURNDATASIZE PUSH1 0x0 DUP1 RETURNDATACOPY RETURNDATASIZE PUSH1 0x0 REVERT JUMPDEST POP POP POP POP PUSH1 0x40 MLOAD RETURNDATASIZE PUSH1 0x1F NOT PUSH1 0x1F DUP3 ADD AND DUP3 ADD DUP1 PUSH1 0x40 MSTORE POP DUP2 ADD SWAP1 PUSH2 0x654 SWAP2 SWAP1 PUSH2 0xB44 JUMP JUMPDEST SWAP4 POP PUSH2 0x84F SWAP1 POP JUMP JUMPDEST PUSH1 0x5 SLOAD PUSH1 0xFF AND PUSH1 0x2 SUB PUSH2 0x758 JUMPI PUSH1 0x3 SLOAD PUSH1 0x40 MLOAD PUSH4 0xC57707B9 PUSH1 0xE0 SHL DUP2 MSTORE PUSH1 0x0 SWAP2 PUSH1 0x1 PUSH1 0x1 PUSH1 0xA0 SHL SUB AND SWAP1 PUSH4 0xC57707B9 SWAP1 PUSH2 0x69F SWAP1 PUSH1 0x4 SWAP1 DUP7 SWAP1 DUP9 SWAP1 DUP4 ADD PUSH2 0xC93 JUMP JUMPDEST PUSH1 0x20 PUSH1 0x40 MLOAD DUP1 DUP4 SUB DUP2 PUSH1 0x0 DUP8 GAS CALL ISZERO DUP1 ISZERO PUSH2 0x6BE JUMPI RETURNDATASIZE PUSH1 0x0 DUP1 RETURNDATACOPY RETURNDATASIZE PUSH1 0x0 REVERT JUMPDEST POP POP POP POP PUSH1 0x40 MLOAD RETURNDATASIZE PUSH1 0x1F NOT PUSH1 0x1F DUP3 ADD AND DUP3 ADD DUP1 PUSH1 0x40 MSTORE POP DUP2 ADD SWAP1 PUSH2 0x6E2 SWAP2 SWAP1 PUSH2 0xB44 JUMP JUMPDEST PUSH1 0x3 SLOAD PUSH1 0x40 MLOAD PUSH4 0x2B7531E1 PUSH1 0xE2 SHL DUP2 MSTORE PUSH1 0x4 DUP2 ADD DUP4 SWAP1 MSTORE SWAP2 SWAP3 POP PUSH1 0x1 PUSH1 0x1 PUSH1 0xA0 SHL SUB AND SWAP1 PUSH4 0xADD4C784 SWAP1 PUSH1 0x24 ADD PUSH1 0x20 PUSH1 0x40 MLOAD DUP1 DUP4 SUB DUP2 DUP7 GAS STATICCALL ISZERO DUP1 ISZERO PUSH2 0x72C JUMPI RETURNDATASIZE PUSH1 0x0 DUP1 RETURNDATACOPY RETURNDATASIZE PUSH1 0x0 REVERT JUMPDEST POP POP POP POP PUSH1 0x40 MLOAD RETURNDATASIZE PUSH1 0x1F NOT PUSH1 0x1F DUP3 ADD AND DUP3 ADD DUP1 PUSH1 0x40 MSTORE POP DUP2 ADD SWAP1 PUSH2 0x750 SWAP2 SWAP1 PUSH2 0xB44 JUMP JUMPDEST SWAP4 POP POP PUSH2 0x84F JUMP JUMPDEST PUSH1 0x5 SLOAD PUSH1 0xFF AND PUSH1 0x3 SUB PUSH2 0x84F JUMPI PUSH1 0x3 SLOAD PUSH1 0x40 MLOAD PUSH4 0x3206C383 PUSH1 0xE1 SHL DUP2 MSTORE PUSH1 0x0 SWAP2 PUSH1 0x1 PUSH1 0x1 PUSH1 0xA0 SHL SUB AND SWAP1 PUSH4 0x640D8706 SWAP1 PUSH2 0x79A SWAP1 PUSH1 0x4 SWAP1 DUP7 SWAP1 DUP9 SWAP1 DUP4 ADD PUSH2 0xC93 JUMP JUMPDEST PUSH1 0x20 PUSH1 0x40 MLOAD DUP1 DUP4 SUB DUP2 PUSH1 0x0 DUP8 GAS CALL ISZERO DUP1 ISZERO PUSH2 0x7B9 JUMPI RETURNDATASIZE PUSH1 0x0 DUP1 RETURNDATACOPY RETURNDATASIZE PUSH1 0x0 REVERT JUMPDEST POP POP POP POP PUSH1 0x40 MLOAD RETURNDATASIZE PUSH1 0x1F NOT PUSH1 0x1F DUP3 ADD AND DUP3 ADD DUP1 PUSH1 0x40 MSTORE POP DUP2 ADD SWAP1 PUSH2 0x7DD SWAP2 SWAP1 PUSH2 0xB44 JUMP JUMPDEST PUSH1 0x3 SLOAD PUSH1 0x40 MLOAD PUSH4 0x2B7531E1 PUSH1 0xE2 SHL DUP2 MSTORE PUSH1 0x4 DUP2 ADD DUP4 SWAP1 MSTORE SWAP2 SWAP3 POP PUSH1 0x1 PUSH1 0x1 PUSH1 0xA0 SHL SUB AND SWAP1 PUSH4 0xADD4C784 SWAP1 PUSH1 0x24 ADD PUSH1 0x20 PUSH1 0x40 MLOAD DUP1 DUP4 SUB DUP2 DUP7 GAS STATICCALL ISZERO DUP1 ISZERO PUSH2 0x827 JUMPI RETURNDATASIZE PUSH1 0x0 DUP1 RETURNDATACOPY RETURNDATASIZE PUSH1 0x0 REVERT JUMPDEST POP POP POP POP PUSH1 0x40 MLOAD RETURNDATASIZE PUSH1 0x1F NOT PUSH1 0x1F DUP3 ADD AND DUP3 ADD DUP1 PUSH1 0x40 MSTORE POP DUP2 ADD SWAP1 PUSH2 0x84B SWAP2 SWAP1 PUSH2 0xB44 JUMP JUMPDEST SWAP4 POP POP JUMPDEST PUSH1 0x0 DUP4 GT PUSH2 0x89F JUMPI PUSH1 0x40 MLOAD PUSH3 0x461BCD PUSH1 0xE5 SHL DUP2 MSTORE PUSH1 0x20 PUSH1 0x4 DUP3 ADD MSTORE PUSH1 0x1E PUSH1 0x24 DUP3 ADD MSTORE PUSH32 0x50726963652073686F756C64206265206D6F7265207468616E207A65726F0000 PUSH1 0x44 DUP3 ADD MSTORE PUSH1 0x64 ADD PUSH2 0x379 JUMP JUMPDEST POP SWAP1 SWAP3 SWAP2 POP POP JUMP JUMPDEST PUSH1 0x4 DUP1 SLOAD PUSH2 0x8B4 SWAP1 PUSH2 0xC59 JUMP JUMPDEST DUP1 PUSH1 0x1F ADD PUSH1 0x20 DUP1 SWAP2 DIV MUL PUSH1 0x20 ADD PUSH1 0x40 MLOAD SWAP1 DUP2 ADD PUSH1 0x40 MSTORE DUP1 SWAP3 SWAP2 SWAP1 DUP2 DUP2 MSTORE PUSH1 0x20 ADD DUP3 DUP1 SLOAD PUSH2 0x8E0 SWAP1 PUSH2 0xC59 JUMP JUMPDEST DUP1 ISZERO PUSH2 0x92D JUMPI DUP1 PUSH1 0x1F LT PUSH2 0x902 JUMPI PUSH2 0x100 DUP1 DUP4 SLOAD DIV MUL DUP4 MSTORE SWAP2 PUSH1 0x20 ADD SWAP2 PUSH2 0x92D JUMP JUMPDEST DUP3 ADD SWAP2 SWAP1 PUSH1 0x0 MSTORE PUSH1 0x20 PUSH1 0x0 KECCAK256 SWAP1 JUMPDEST DUP2 SLOAD DUP2 MSTORE SWAP1 PUSH1 0x1 ADD SWAP1 PUSH1 0x20 ADD DUP1 DUP4 GT PUSH2 0x910 JUMPI DUP3 SWAP1 SUB PUSH1 0x1F AND DUP3 ADD SWAP2 JUMPDEST POP POP POP POP POP DUP2 JUMP JUMPDEST PUSH1 0x6 DUP1 SLOAD PUSH1 0x0 SWAP2 DUP3 PUSH2 0x946 DUP4 PUSH2 0xBDA JUMP JUMPDEST SWAP2 SWAP1 POP SSTORE SWAP1 POP SWAP1 JUMP JUMPDEST PUSH2 0x957 PUSH2 0x9C8 JUMP JUMPDEST PUSH1 0x1 PUSH1 0x1 PUSH1 0xA0 SHL SUB DUP2 AND PUSH2 0x9BC JUMPI PUSH1 0x40 MLOAD PUSH3 0x461BCD PUSH1 0xE5 SHL DUP2 MSTORE PUSH1 0x20 PUSH1 0x4 DUP3 ADD MSTORE PUSH1 0x26 PUSH1 0x24 DUP3 ADD MSTORE PUSH32 0x4F776E61626C653A206E6577206F776E657220697320746865207A65726F2061 PUSH1 0x44 DUP3 ADD MSTORE PUSH6 0x646472657373 PUSH1 0xD0 SHL PUSH1 0x64 DUP3 ADD MSTORE PUSH1 0x84 ADD PUSH2 0x379 JUMP JUMPDEST PUSH2 0x9C5 DUP2 PUSH2 0xA22 JUMP JUMPDEST POP JUMP JUMPDEST PUSH1 0x0 SLOAD PUSH1 0x1 PUSH1 0x1 PUSH1 0xA0 SHL SUB AND CALLER EQ PUSH2 0x5C2 JUMPI PUSH1 0x40 MLOAD PUSH3 0x461BCD PUSH1 0xE5 SHL DUP2 MSTORE PUSH1 0x20 PUSH1 0x4 DUP3 ADD DUP2 SWAP1 MSTORE PUSH1 0x24 DUP3 ADD MSTORE PUSH32 0x4F776E61626C653A2063616C6C6572206973206E6F7420746865206F776E6572 PUSH1 0x44 DUP3 ADD MSTORE PUSH1 0x64 ADD PUSH2 0x379 JUMP JUMPDEST PUSH1 0x0 DUP1 SLOAD PUSH1 0x1 PUSH1 0x1 PUSH1 0xA0 SHL SUB DUP4 DUP2 AND PUSH1 0x1 PUSH1 0x1 PUSH1 0xA0 SHL SUB NOT DUP4 AND DUP2 OR DUP5 SSTORE PUSH1 0x40 MLOAD SWAP2 SWAP1 SWAP3 AND SWAP3 DUP4 SWAP2 PUSH32 0x8BE0079C531659141344CD1FD0A4F28419497F9722A3DAAFE3B4186F6B6457E0 SWAP2 SWAP1 LOG3 POP POP JUMP JUMPDEST DUP1 CALLDATALOAD PUSH1 0x1 PUSH1 0x1 PUSH1 0xA0 SHL SUB DUP2 AND DUP2 EQ PUSH2 0xA89 JUMPI PUSH1 0x0 DUP1 REVERT JUMPDEST SWAP2 SWAP1 POP JUMP JUMPDEST PUSH1 0x0 DUP1 PUSH1 0x0 DUP1 PUSH1 0x80 DUP6 DUP8 SUB SLT ISZERO PUSH2 0xAA4 JUMPI PUSH1 0x0 DUP1 REVERT JUMPDEST PUSH2 0xAAD DUP6 PUSH2 0xA72 JUMP JUMPDEST SWAP4 POP PUSH1 0x20 DUP6 ADD CALLDATALOAD SWAP3 POP PUSH1 0x40 DUP6 ADD CALLDATALOAD SWAP2 POP PUSH2 0xAC9 PUSH1 0x60 DUP7 ADD PUSH2 0xA72 JUMP JUMPDEST SWAP1 POP SWAP3 SWAP6 SWAP2 SWAP5 POP SWAP3 POP JUMP JUMPDEST PUSH1 0x0 PUSH1 0x20 DUP1 DUP4 MSTORE DUP4 MLOAD DUP1 DUP3 DUP6 ADD MSTORE PUSH1 0x0 JUMPDEST DUP2 DUP2 LT ISZERO PUSH2 0xB01 JUMPI DUP6 DUP2 ADD DUP4 ADD MLOAD DUP6 DUP3 ADD PUSH1 0x40 ADD MSTORE DUP3 ADD PUSH2 0xAE5 JUMP JUMPDEST POP PUSH1 0x0 PUSH1 0x40 DUP3 DUP7 ADD ADD MSTORE PUSH1 0x40 PUSH1 0x1F NOT PUSH1 0x1F DUP4 ADD AND DUP6 ADD ADD SWAP3 POP POP POP SWAP3 SWAP2 POP POP JUMP JUMPDEST PUSH1 0x0 PUSH1 0x20 DUP3 DUP5 SUB SLT ISZERO PUSH2 0xB34 JUMPI PUSH1 0x0 DUP1 REVERT JUMPDEST PUSH2 0xB3D DUP3 PUSH2 0xA72 JUMP JUMPDEST SWAP4 SWAP3 POP POP POP JUMP JUMPDEST PUSH1 0x0 PUSH1 0x20 DUP3 DUP5 SUB SLT ISZERO PUSH2 0xB56 JUMPI PUSH1 0x0 DUP1 REVERT JUMPDEST POP MLOAD SWAP2 SWAP1 POP JUMP JUMPDEST PUSH1 0x0 PUSH1 0x20 DUP3 DUP5 SUB SLT ISZERO PUSH2 0xB6F JUMPI PUSH1 0x0 DUP1 REVERT JUMPDEST DUP2 MLOAD DUP1 ISZERO ISZERO DUP2 EQ PUSH2 0xB3D JUMPI PUSH1 0x0 DUP1 REVERT JUMPDEST PUSH1 0x1 PUSH1 0x1 PUSH1 0xA0 SHL SUB SWAP8 DUP9 AND DUP2 MSTORE SWAP6 DUP8 AND PUSH1 0x20 DUP8 ADD MSTORE PUSH1 0x40 DUP7 ADD SWAP5 SWAP1 SWAP5 MSTORE PUSH1 0x60 DUP6 ADD SWAP3 SWAP1 SWAP3 MSTORE DUP5 AND PUSH1 0x80 DUP5 ADD MSTORE SWAP1 SWAP3 AND PUSH1 0xA0 DUP3 ADD MSTORE PUSH2 0xFFFF SWAP1 SWAP2 AND PUSH1 0xC0 DUP3 ADD MSTORE PUSH1 0xE0 ADD SWAP1 JUMP JUMPDEST PUSH4 0x4E487B71 PUSH1 0xE0 SHL PUSH1 0x0 MSTORE PUSH1 0x11 PUSH1 0x4 MSTORE PUSH1 0x24 PUSH1 0x0 REVERT JUMPDEST PUSH1 0x0 PUSH1 0x1 DUP3 ADD PUSH2 0xBEC JUMPI PUSH2 0xBEC PUSH2 0xBC4 JUMP JUMPDEST POP PUSH1 0x1 ADD SWAP1 JUMP JUMPDEST DUP1 DUP3 MUL DUP2 ISZERO DUP3 DUP3 DIV DUP5 EQ OR PUSH2 0xC0A JUMPI PUSH2 0xC0A PUSH2 0xBC4 JUMP JUMPDEST SWAP3 SWAP2 POP POP JUMP JUMPDEST PUSH1 0x0 DUP3 PUSH2 0xC2D JUMPI PUSH4 0x4E487B71 PUSH1 0xE0 SHL PUSH1 0x0 MSTORE PUSH1 0x12 PUSH1 0x4 MSTORE PUSH1 0x24 PUSH1 0x0 REVERT JUMPDEST POP DIV SWAP1 JUMP JUMPDEST DUP2 DUP2 SUB PUSH1 0x0 DUP4 SLT DUP1 ISZERO DUP4 DUP4 SGT AND DUP4 DUP4 SLT DUP3 AND OR ISZERO PUSH2 0xC52 JUMPI PUSH2 0xC52 PUSH2 0xBC4 JUMP JUMPDEST POP SWAP3 SWAP2 POP POP JUMP JUMPDEST PUSH1 0x1 DUP2 DUP2 SHR SWAP1 DUP3 AND DUP1 PUSH2 0xC6D JUMPI PUSH1 0x7F DUP3 AND SWAP2 POP JUMPDEST PUSH1 0x20 DUP3 LT DUP2 SUB PUSH2 0xC8D JUMPI PUSH4 0x4E487B71 PUSH1 0xE0 SHL PUSH1 0x0 MSTORE PUSH1 0x22 PUSH1 0x4 MSTORE PUSH1 0x24 PUSH1 0x0 REVERT JUMPDEST POP SWAP2 SWAP1 POP JUMP JUMPDEST PUSH1 0x60 DUP2 MSTORE PUSH1 0x0 DUP1 DUP6 SLOAD DUP2 PUSH1 0x1 DUP3 DUP2 SHR SWAP2 POP DUP1 DUP4 AND DUP1 PUSH2 0xCB3 JUMPI PUSH1 0x7F DUP4 AND SWAP3 POP JUMPDEST PUSH1 0x20 DUP1 DUP5 LT DUP3 SUB PUSH2 0xCD2 JUMPI PUSH4 0x4E487B71 PUSH1 0xE0 SHL DUP7 MSTORE PUSH1 0x22 PUSH1 0x4 MSTORE PUSH1 0x24 DUP7 REVERT JUMPDEST PUSH1 0x60 DUP9 ADD DUP5 SWAP1 MSTORE PUSH1 0x80 DUP9 ADD DUP3 DUP1 ISZERO PUSH2 0xCF1 JUMPI PUSH1 0x1 DUP2 EQ PUSH2 0xD07 JUMPI PUSH2 0xD32 JUMP JUMPDEST PUSH1 0xFF NOT DUP8 AND DUP3 MSTORE DUP6 ISZERO ISZERO PUSH1 0x5 SHL DUP3 ADD SWAP8 POP PUSH2 0xD32 JUMP JUMPDEST PUSH1 0x0 DUP14 DUP2 MSTORE PUSH1 0x20 SWAP1 KECCAK256 PUSH1 0x0 JUMPDEST DUP8 DUP2 LT ISZERO PUSH2 0xD2C JUMPI DUP2 SLOAD DUP5 DUP3 ADD MSTORE SWAP1 DUP7 ADD SWAP1 DUP5 ADD PUSH2 0xD13 JUMP JUMPDEST DUP4 ADD SWAP9 POP POP JUMPDEST POP POP DUP8 ADD SWAP9 SWAP1 SWAP9 MSTORE POP POP POP PUSH1 0x40 SWAP1 SWAP3 ADD SWAP3 SWAP1 SWAP3 MSTORE SWAP4 SWAP3 POP POP POP JUMP INVALID LOG2 PUSH5 0x6970667358 0x22 SLT KECCAK256 SUB PC DUP2 KECCAK256 0xE3 0x4D 0xE5 0xE6 JUMP SWAP1 0xA7 SSTORE 0x23 0xAB KECCAK256 0xA8 SHR SWAP1 0x1E XOR SDIV JUMP 0x4C 0xC7 CALLVALUE DUP6 EXTCODEHASH CALL PUSH7 0xFC904464736F6C PUSH4 0x43000813 STOP CALLER ",
    "sha1": "83b5c5e35fc1bd1d3c750e3f54a2bad19adc4694",
    "source": "// SPDX-License-Identifier: MIT\npragma solidity ^0.8.0;\n\nimport \"./PriceFeedOracle.sol\";\nimport \"./TwapVwapAdapter.sol\";\n\nimport \"../node_modules/@openzeppelin/contracts/access/Ownable.sol\";\nimport \"../node_modules/@openzeppelin/contracts/token/ERC20/IERC20.sol\";\n\ncontract Tulip is Ownable {\n\n    // The ERC20 token to buy / sell for ETH.\n    IERC20 baseToken;\n    // From https://docs.chain.link/data-feeds/price-feeds/addresses.\n    PriceFeedOracle public priceFeedOracle;\n    // The contract that communicates with coingecko API through chainlink node and our external adapter.\n    TwapVwapAdapter public twapVwapOracle;\n    string public baseTokenSymbol;\n    //uint16 public swapPeriodInSecs;\n    //uint8 public swapRandomizationInSecs;\n    //uint256 public feesAsPct;\n    uint8 public priceMode;\n    // The numerical ID of unique swap pair, e.g. wBTC/ETH.\n    uint16 public pairID;\n    // The ID of the current swap, is incremented after the swap is done.\n    uint256 public currentSwapID;\n    // The ID of the current order, is incremented after the order is submitted.\n    uint256 public currentOrderID;\n    // Store the ID of orders from the current swap.\n    uint256[] ordersID;\n\n    // .\n    event newBuyOrder(\n        uint256 indexed swapID,\n        uint256 indexed orderID,\n        address baseToken,\n        address quoteToken,\n        uint256 amount,\n        uint256 limitPrice,\n        address depositAddress,\n        address senderAddress,\n        uint16 pairID\n\n    );\n    event newSellOrder(\n        uint256 indexed swapID,\n        uint256 indexed orderID,\n        address baseToken,\n        address quoteToken,\n        uint256 amount,\n        uint256 limitPrice,\n        address depositAddress,\n        address senderAddress,\n        uint16 pairID\n    );\n\n    event buyOrderDone();\n    event sellOrderDone();\n\n\n    /// @param _baseToken: a token to swap (e.g., wBTC, ADA)\n    /// @param _baseTokenSymbol: base token symbol to use with twap/vwap API\n    /// @param _pairID: The numerical ID of unique swap pair, e.g. wBTC/ETH.\n    /// @param _priceMode: 1 for chainlink price feed, 2 for twap, 3 for vwap\n    /// @param _priceFeedOracle: contract providing the price for the _baseToken from chainlink price feed\n    /// @param _twapVwapOracle: contract providing the price for the _baseToken from our twap/vwap external adapter\n    constructor(\n        address _baseToken,\n        string memory _baseTokenSymbol,\n        uint16 _pairID,\n        uint8 _priceMode,\n        address _priceFeedOracle,\n        address _twapVwapOracle\n    ) {\n        baseTokenSymbol = _baseTokenSymbol;\n        priceMode = _priceMode;\n        pairID = _pairID;\n        // Deploy new price feed client contract.\n        priceFeedOracle = new PriceFeedOracle(_priceFeedOracle);\n        // Get the deployed contract of TwapVwap adapter.\n        twapVwapOracle = TwapVwapAdapter(_twapVwapOracle);\n        baseToken = IERC20(_baseToken);\n    }\n\n    /// @notice Create an order to buy the tokens for ETH\n    /// @param _baseToken: the base ERC20 token\n    /// @param _quantity: amount of token to buy with 18 decimals, e.g. 1 * 10**18 for 1 token\n    /// @param _limitPrice: the max price for one token in WEI\n    /// @param _depositAddress: the address to send the tokens after the order is completed\n    function buyOrder(\n        address _baseToken,\n        uint256 _quantity,\n        uint256 _limitPrice,\n        address _depositAddress\n    ) external payable returns (uint256) {\n        require(_baseToken == address(baseToken));\n        uint256 fullPrice = (_quantity * _limitPrice) / 10 ** 18;\n        require(\n            msg.value >= fullPrice,\n            \"Value should cover the full price of requested amount of tokens\"\n        );\n        emit newBuyOrder(\n            currentSwapID,\n            currentOrderID,\n            _baseToken,\n            address(0x0),\n            _quantity,\n            _limitPrice,\n            _depositAddress,\n            msg.sender,\n            pairID\n        );\n        ordersID.push(currentOrderID);\n        // Return the value and increment it after.\n        return currentOrderID++;\n    }\n\n    /// @notice Create an order to sell the tokens for ETH.\n    /// @param _baseToken: amount of token to sell\n    /// @param _quantity: amount of token to sell with 18 decimals, e.g. 1 * 10**18 for 1 token\n    /// @param _limitPrice: the upper price for one token in WEI\n    /// @param _depositAddress: the address to send the ETH after the order is completed\n    function sellOrder(\n        address _baseToken,\n        uint256 _quantity,\n        uint256 _limitPrice,\n        address _depositAddress\n    ) external payable returns (uint256) {\n        require(_baseToken == address(baseToken));\n        // NOTE: User needs to approve the smart contract to spend their tokens.\n        uint256 allowance = baseToken.allowance(msg.sender, address(this));\n        require(allowance >= _quantity, \"Check the token allowance\");\n        // Receive tokens.\n        baseToken.transferFrom(msg.sender, address(this), _quantity);\n        emit newSellOrder(\n            currentSwapID,\n            currentOrderID,\n            _baseToken,\n            address(0x0),\n            _quantity,\n            _limitPrice,\n            _depositAddress,\n            msg.sender,\n            pairID\n        );\n        ordersID.push(currentOrderID);\n        // Return the value and increment it after.\n        return currentOrderID++;\n    }\n\n\n    function runSwap() public returns (uint256) {\n        return currentSwapID++;\n    }\n\n    /// @notice Get token price from the Chainlink price feed or TwapVwap adapter. \n    function getPrice() public returns (uint256) {\n        uint256 uintPrice;\n        int256 currentTimestamp = int(block.timestamp);\n        // Get the timestamp of one week before.\n        int256 startTimestamp = currentTimestamp - 604800;\n        if (priceMode == 1) {\n            // Get the price from chainlink price feed.\n            int256 price = priceFeedOracle.getLatestPrice();\n            uintPrice = uint(price);\n        } else if (priceMode == 2) {\n            // Get twap price from coingecko API.\n            bytes32 requestId = twapVwapOracle.requestTwap(baseTokenSymbol, startTimestamp, currentTimestamp);\n            uintPrice = twapVwapOracle.getResult(requestId);\n        } else if (priceMode == 3) {\n            // Get VWAP price from coingecko API.\n            bytes32 requestId = twapVwapOracle.requestVwap(baseTokenSymbol, startTimestamp, currentTimestamp);\n            uintPrice = twapVwapOracle.getResult(requestId);\n        }\n        require(uintPrice > 0, \"Price should be more than zero\");\n        return uintPrice;\n\n    }\n\n    function eraseOrders() internal onlyOwner {\n        // Remove orders from the previous swap.\n        delete ordersID;\n        // Create new orders array.\n        uint256[] storage ordersID;\n    }\n\n\n}",
    "sourcePath": "contracts/Tulip.sol",
    "type": "contract"
}